{
  "_format": "hh-sol-artifact-1",
  "contractName": "CoreNFT",
  "sourceName": "contracts/NFT.sol",
  "abi": [
    {
      "inputs": [
        {
          "internalType": "string",
          "name": "baseURI_",
          "type": "string"
        }
      ],
      "stateMutability": "nonpayable",
      "type": "constructor"
    },
    {
      "inputs": [],
      "name": "ERC721EnumerableForbiddenBatchMint",
      "type": "error"
    },
    {
      "inputs": [
        {
          "internalType": "address",
          "name": "sender",
          "type": "address"
        },
        {
          "internalType": "uint256",
          "name": "tokenId",
          "type": "uint256"
        },
        {
          "internalType": "address",
          "name": "owner",
          "type": "address"
        }
      ],
      "name": "ERC721IncorrectOwner",
      "type": "error"
    },
    {
      "inputs": [
        {
          "internalType": "address",
          "name": "operator",
          "type": "address"
        },
        {
          "internalType": "uint256",
          "name": "tokenId",
          "type": "uint256"
        }
      ],
      "name": "ERC721InsufficientApproval",
      "type": "error"
    },
    {
      "inputs": [
        {
          "internalType": "address",
          "name": "approver",
          "type": "address"
        }
      ],
      "name": "ERC721InvalidApprover",
      "type": "error"
    },
    {
      "inputs": [
        {
          "internalType": "address",
          "name": "operator",
          "type": "address"
        }
      ],
      "name": "ERC721InvalidOperator",
      "type": "error"
    },
    {
      "inputs": [
        {
          "internalType": "address",
          "name": "owner",
          "type": "address"
        }
      ],
      "name": "ERC721InvalidOwner",
      "type": "error"
    },
    {
      "inputs": [
        {
          "internalType": "address",
          "name": "receiver",
          "type": "address"
        }
      ],
      "name": "ERC721InvalidReceiver",
      "type": "error"
    },
    {
      "inputs": [
        {
          "internalType": "address",
          "name": "sender",
          "type": "address"
        }
      ],
      "name": "ERC721InvalidSender",
      "type": "error"
    },
    {
      "inputs": [
        {
          "internalType": "uint256",
          "name": "tokenId",
          "type": "uint256"
        }
      ],
      "name": "ERC721NonexistentToken",
      "type": "error"
    },
    {
      "inputs": [
        {
          "internalType": "address",
          "name": "owner",
          "type": "address"
        },
        {
          "internalType": "uint256",
          "name": "index",
          "type": "uint256"
        }
      ],
      "name": "ERC721OutOfBoundsIndex",
      "type": "error"
    },
    {
      "inputs": [
        {
          "internalType": "address",
          "name": "owner",
          "type": "address"
        }
      ],
      "name": "OwnableInvalidOwner",
      "type": "error"
    },
    {
      "inputs": [
        {
          "internalType": "address",
          "name": "account",
          "type": "address"
        }
      ],
      "name": "OwnableUnauthorizedAccount",
      "type": "error"
    },
    {
      "anonymous": false,
      "inputs": [
        {
          "indexed": true,
          "internalType": "address",
          "name": "owner",
          "type": "address"
        },
        {
          "indexed": true,
          "internalType": "address",
          "name": "approved",
          "type": "address"
        },
        {
          "indexed": true,
          "internalType": "uint256",
          "name": "tokenId",
          "type": "uint256"
        }
      ],
      "name": "Approval",
      "type": "event"
    },
    {
      "anonymous": false,
      "inputs": [
        {
          "indexed": true,
          "internalType": "address",
          "name": "owner",
          "type": "address"
        },
        {
          "indexed": true,
          "internalType": "address",
          "name": "operator",
          "type": "address"
        },
        {
          "indexed": false,
          "internalType": "bool",
          "name": "approved",
          "type": "bool"
        }
      ],
      "name": "ApprovalForAll",
      "type": "event"
    },
    {
      "anonymous": false,
      "inputs": [
        {
          "indexed": false,
          "internalType": "uint256",
          "name": "_fromTokenId",
          "type": "uint256"
        },
        {
          "indexed": false,
          "internalType": "uint256",
          "name": "_toTokenId",
          "type": "uint256"
        }
      ],
      "name": "BatchMetadataUpdate",
      "type": "event"
    },
    {
      "anonymous": false,
      "inputs": [
        {
          "indexed": false,
          "internalType": "uint256",
          "name": "_tokenId",
          "type": "uint256"
        }
      ],
      "name": "MetadataUpdate",
      "type": "event"
    },
    {
      "anonymous": false,
      "inputs": [
        {
          "indexed": true,
          "internalType": "address",
          "name": "previousOwner",
          "type": "address"
        },
        {
          "indexed": true,
          "internalType": "address",
          "name": "newOwner",
          "type": "address"
        }
      ],
      "name": "OwnershipTransferred",
      "type": "event"
    },
    {
      "anonymous": false,
      "inputs": [
        {
          "indexed": true,
          "internalType": "address",
          "name": "from",
          "type": "address"
        },
        {
          "indexed": true,
          "internalType": "address",
          "name": "to",
          "type": "address"
        },
        {
          "indexed": true,
          "internalType": "uint256",
          "name": "tokenId",
          "type": "uint256"
        }
      ],
      "name": "Transfer",
      "type": "event"
    },
    {
      "inputs": [
        {
          "internalType": "address",
          "name": "to",
          "type": "address"
        },
        {
          "internalType": "uint256",
          "name": "tokenId",
          "type": "uint256"
        }
      ],
      "name": "approve",
      "outputs": [],
      "stateMutability": "nonpayable",
      "type": "function"
    },
    {
      "inputs": [
        {
          "internalType": "address",
          "name": "owner",
          "type": "address"
        }
      ],
      "name": "balanceOf",
      "outputs": [
        {
          "internalType": "uint256",
          "name": "",
          "type": "uint256"
        }
      ],
      "stateMutability": "view",
      "type": "function"
    },
    {
      "inputs": [
        {
          "internalType": "uint256",
          "name": "tokenId",
          "type": "uint256"
        }
      ],
      "name": "getApproved",
      "outputs": [
        {
          "internalType": "address",
          "name": "",
          "type": "address"
        }
      ],
      "stateMutability": "view",
      "type": "function"
    },
    {
      "inputs": [],
      "name": "getCurrentTokenId",
      "outputs": [
        {
          "internalType": "uint256",
          "name": "",
          "type": "uint256"
        }
      ],
      "stateMutability": "view",
      "type": "function"
    },
    {
      "inputs": [
        {
          "internalType": "address",
          "name": "owner",
          "type": "address"
        },
        {
          "internalType": "address",
          "name": "operator",
          "type": "address"
        }
      ],
      "name": "isApprovedForAll",
      "outputs": [
        {
          "internalType": "bool",
          "name": "",
          "type": "bool"
        }
      ],
      "stateMutability": "view",
      "type": "function"
    },
    {
      "inputs": [],
      "name": "name",
      "outputs": [
        {
          "internalType": "string",
          "name": "",
          "type": "string"
        }
      ],
      "stateMutability": "view",
      "type": "function"
    },
    {
      "inputs": [],
      "name": "owner",
      "outputs": [
        {
          "internalType": "address",
          "name": "",
          "type": "address"
        }
      ],
      "stateMutability": "view",
      "type": "function"
    },
    {
      "inputs": [
        {
          "internalType": "uint256",
          "name": "tokenId",
          "type": "uint256"
        }
      ],
      "name": "ownerOf",
      "outputs": [
        {
          "internalType": "address",
          "name": "",
          "type": "address"
        }
      ],
      "stateMutability": "view",
      "type": "function"
    },
    {
      "inputs": [],
      "name": "renounceOwnership",
      "outputs": [],
      "stateMutability": "nonpayable",
      "type": "function"
    },
    {
      "inputs": [
        {
          "internalType": "address",
          "name": "to",
          "type": "address"
        }
      ],
      "name": "safeMint",
      "outputs": [],
      "stateMutability": "nonpayable",
      "type": "function"
    },
    {
      "inputs": [
        {
          "internalType": "address",
          "name": "from",
          "type": "address"
        },
        {
          "internalType": "address",
          "name": "to",
          "type": "address"
        },
        {
          "internalType": "uint256",
          "name": "tokenId",
          "type": "uint256"
        }
      ],
      "name": "safeTransferFrom",
      "outputs": [],
      "stateMutability": "nonpayable",
      "type": "function"
    },
    {
      "inputs": [
        {
          "internalType": "address",
          "name": "from",
          "type": "address"
        },
        {
          "internalType": "address",
          "name": "to",
          "type": "address"
        },
        {
          "internalType": "uint256",
          "name": "tokenId",
          "type": "uint256"
        },
        {
          "internalType": "bytes",
          "name": "data",
          "type": "bytes"
        }
      ],
      "name": "safeTransferFrom",
      "outputs": [],
      "stateMutability": "nonpayable",
      "type": "function"
    },
    {
      "inputs": [
        {
          "internalType": "address",
          "name": "operator",
          "type": "address"
        },
        {
          "internalType": "bool",
          "name": "approved",
          "type": "bool"
        }
      ],
      "name": "setApprovalForAll",
      "outputs": [],
      "stateMutability": "nonpayable",
      "type": "function"
    },
    {
      "inputs": [
        {
          "internalType": "string",
          "name": "baseURI_",
          "type": "string"
        }
      ],
      "name": "setBaseURI",
      "outputs": [],
      "stateMutability": "nonpayable",
      "type": "function"
    },
    {
      "inputs": [
        {
          "internalType": "bytes4",
          "name": "interfaceId",
          "type": "bytes4"
        }
      ],
      "name": "supportsInterface",
      "outputs": [
        {
          "internalType": "bool",
          "name": "",
          "type": "bool"
        }
      ],
      "stateMutability": "view",
      "type": "function"
    },
    {
      "inputs": [],
      "name": "symbol",
      "outputs": [
        {
          "internalType": "string",
          "name": "",
          "type": "string"
        }
      ],
      "stateMutability": "view",
      "type": "function"
    },
    {
      "inputs": [
        {
          "internalType": "uint256",
          "name": "index",
          "type": "uint256"
        }
      ],
      "name": "tokenByIndex",
      "outputs": [
        {
          "internalType": "uint256",
          "name": "",
          "type": "uint256"
        }
      ],
      "stateMutability": "view",
      "type": "function"
    },
    {
      "inputs": [
        {
          "internalType": "address",
          "name": "owner",
          "type": "address"
        },
        {
          "internalType": "uint256",
          "name": "index",
          "type": "uint256"
        }
      ],
      "name": "tokenOfOwnerByIndex",
      "outputs": [
        {
          "internalType": "uint256",
          "name": "",
          "type": "uint256"
        }
      ],
      "stateMutability": "view",
      "type": "function"
    },
    {
      "inputs": [
        {
          "internalType": "uint256",
          "name": "tokenId",
          "type": "uint256"
        }
      ],
      "name": "tokenURI",
      "outputs": [
        {
          "internalType": "string",
          "name": "",
          "type": "string"
        }
      ],
      "stateMutability": "view",
      "type": "function"
    },
    {
      "inputs": [],
      "name": "totalSupply",
      "outputs": [
        {
          "internalType": "uint256",
          "name": "",
          "type": "uint256"
        }
      ],
      "stateMutability": "view",
      "type": "function"
    },
    {
      "inputs": [
        {
          "internalType": "address",
          "name": "from",
          "type": "address"
        },
        {
          "internalType": "address",
          "name": "to",
          "type": "address"
        },
        {
          "internalType": "uint256",
          "name": "tokenId",
          "type": "uint256"
        }
      ],
      "name": "transferFrom",
      "outputs": [],
      "stateMutability": "nonpayable",
      "type": "function"
    },
    {
      "inputs": [
        {
          "internalType": "address",
          "name": "newOwner",
          "type": "address"
        }
      ],
      "name": "transferOwnership",
      "outputs": [],
      "stateMutability": "nonpayable",
      "type": "function"
    }
  ],
  "bytecode": "0x60806040523480156200001157600080fd5b506040516200359b3803806200359b8339818101604052810190620000379190620003cb565b336040518060400160405280600781526020017f436f72654e4654000000000000000000000000000000000000000000000000008152506040518060400160405280600481526020017f434f5245000000000000000000000000000000000000000000000000000000008152508160009081620000b5919062000667565b508060019081620000c7919062000667565b505050600073ffffffffffffffffffffffffffffffffffffffff168173ffffffffffffffffffffffffffffffffffffffff16036200013f5760006040517f1e4fbdf700000000000000000000000000000000000000000000000000000000815260040162000136919062000793565b60405180910390fd5b62000150816200017260201b60201c565b5080600d908162000162919062000667565b506000600c8190555050620007b0565b6000600b60009054906101000a900473ffffffffffffffffffffffffffffffffffffffff16905081600b60006101000a81548173ffffffffffffffffffffffffffffffffffffffff021916908373ffffffffffffffffffffffffffffffffffffffff1602179055508173ffffffffffffffffffffffffffffffffffffffff168173ffffffffffffffffffffffffffffffffffffffff167f8be0079c531659141344cd1fd0a4f28419497f9722a3daafe3b4186f6b6457e060405160405180910390a35050565b6000604051905090565b600080fd5b600080fd5b600080fd5b600080fd5b6000601f19601f8301169050919050565b7f4e487b7100000000000000000000000000000000000000000000000000000000600052604160045260246000fd5b620002a18262000256565b810181811067ffffffffffffffff82111715620002c357620002c262000267565b5b80604052505050565b6000620002d862000238565b9050620002e6828262000296565b919050565b600067ffffffffffffffff82111562000309576200030862000267565b5b620003148262000256565b9050602081019050919050565b60005b838110156200034157808201518184015260208101905062000324565b60008484015250505050565b6000620003646200035e84620002eb565b620002cc565b90508281526020810184848401111562000383576200038262000251565b5b6200039084828562000321565b509392505050565b600082601f830112620003b057620003af6200024c565b5b8151620003c28482602086016200034d565b91505092915050565b600060208284031215620003e457620003e362000242565b5b600082015167ffffffffffffffff81111562000405576200040462000247565b5b620004138482850162000398565b91505092915050565b600081519050919050565b7f4e487b7100000000000000000000000000000000000000000000000000000000600052602260045260246000fd5b600060028204905060018216806200046f57607f821691505b60208210810362000485576200048462000427565b5b50919050565b60008190508160005260206000209050919050565b60006020601f8301049050919050565b600082821b905092915050565b600060088302620004ef7fffffffffffffffffffffffffffffffffffffffffffffffffffffffffffffffff82620004b0565b620004fb8683620004b0565b95508019841693508086168417925050509392505050565b6000819050919050565b6000819050919050565b600062000548620005426200053c8462000513565b6200051d565b62000513565b9050919050565b6000819050919050565b620005648362000527565b6200057c62000573826200054f565b848454620004bd565b825550505050565b600090565b6200059362000584565b620005a081848462000559565b505050565b5b81811015620005c857620005bc60008262000589565b600181019050620005a6565b5050565b601f8211156200061757620005e1816200048b565b620005ec84620004a0565b81016020851015620005fc578190505b620006146200060b85620004a0565b830182620005a5565b50505b505050565b600082821c905092915050565b60006200063c600019846008026200061c565b1980831691505092915050565b600062000657838362000629565b9150826002028217905092915050565b62000672826200041c565b67ffffffffffffffff8111156200068e576200068d62000267565b5b6200069a825462000456565b620006a7828285620005cc565b600060209050601f831160018114620006df5760008415620006ca578287015190505b620006d6858262000649565b86555062000746565b601f198416620006ef866200048b565b60005b828110156200071957848901518255600182019150602085019450602081019050620006f2565b8683101562000739578489015162000735601f89168262000629565b8355505b6001600288020188555050505b505050505050565b600073ffffffffffffffffffffffffffffffffffffffff82169050919050565b60006200077b826200074e565b9050919050565b6200078d816200076e565b82525050565b6000602082019050620007aa600083018462000782565b92915050565b612ddb80620007c06000396000f3fe608060405234801561001057600080fd5b50600436106101425760003560e01c806356189236116100b857806395d89b411161007c57806395d89b4114610375578063a22cb46514610393578063b88d4fde146103af578063c87b56dd146103cb578063e985e9c5146103fb578063f2fde38b1461042b57610142565b806356189236146102cf5780636352211e146102ed57806370a082311461031d578063715018a61461034d5780638da5cb5b1461035757610142565b806323b872dd1161010a57806323b872dd146101ff5780632f745c591461021b57806340d097c31461024b57806342842e0e146102675780634f6ccce71461028357806355f804b3146102b357610142565b806301ffc9a71461014757806306fdde0314610177578063081812fc14610195578063095ea7b3146101c557806318160ddd146101e1575b600080fd5b610161600480360381019061015c919061213b565b610447565b60405161016e9190612183565b60405180910390f35b61017f610459565b60405161018c919061222e565b60405180910390f35b6101af60048036038101906101aa9190612286565b6104eb565b6040516101bc91906122f4565b60405180910390f35b6101df60048036038101906101da919061233b565b610507565b005b6101e961051d565b6040516101f6919061238a565b60405180910390f35b610219600480360381019061021491906123a5565b61052a565b005b6102356004803603810190610230919061233b565b61062c565b604051610242919061238a565b60405180910390f35b610265600480360381019061026091906123f8565b6106d5565b005b610281600480360381019061027c91906123a5565b610737565b005b61029d60048036038101906102989190612286565b610757565b6040516102aa919061238a565b60405180910390f35b6102cd60048036038101906102c8919061255a565b6107cd565b005b6102d76107e8565b6040516102e4919061238a565b60405180910390f35b61030760048036038101906103029190612286565b6107f2565b60405161031491906122f4565b60405180910390f35b610337600480360381019061033291906123f8565b610804565b604051610344919061238a565b60405180910390f35b6103556108be565b005b61035f6108d2565b60405161036c91906122f4565b60405180910390f35b61037d6108fc565b60405161038a919061222e565b60405180910390f35b6103ad60048036038101906103a891906125cf565b61098e565b005b6103c960048036038101906103c491906126b0565b6109a4565b005b6103e560048036038101906103e09190612286565b6109c1565b6040516103f2919061222e565b60405180910390f35b61041560048036038101906104109190612733565b610a20565b6040516104229190612183565b60405180910390f35b610445600480360381019061044091906123f8565b610ab4565b005b600061045282610b3a565b9050919050565b606060008054610468906127a2565b80601f0160208091040260200160405190810160405280929190818152602001828054610494906127a2565b80156104e15780601f106104b6576101008083540402835291602001916104e1565b820191906000526020600020905b8154815290600101906020018083116104c457829003601f168201915b5050505050905090565b60006104f682610b9b565b5061050082610c23565b9050919050565b6105198282610514610c60565b610c68565b5050565b6000600880549050905090565b600073ffffffffffffffffffffffffffffffffffffffff168273ffffffffffffffffffffffffffffffffffffffff160361059c5760006040517f64a0ae9200000000000000000000000000000000000000000000000000000000815260040161059391906122f4565b60405180910390fd5b60006105b083836105ab610c60565b610c7a565b90508373ffffffffffffffffffffffffffffffffffffffff168173ffffffffffffffffffffffffffffffffffffffff1614610626578382826040517f64283d7b00000000000000000000000000000000000000000000000000000000815260040161061d939291906127d3565b60405180910390fd5b50505050565b600061063783610804565b821061067c5782826040517fa57d13dc00000000000000000000000000000000000000000000000000000000815260040161067392919061280a565b60405180910390fd5b600660008473ffffffffffffffffffffffffffffffffffffffff1673ffffffffffffffffffffffffffffffffffffffff168152602001908152602001600020600083815260200190815260200160002054905092915050565b6106dd610c90565b6000600c60008154809291906106f290612862565b9190505590506107028282610d17565b6107338161070f83610d35565b60405160200161071f9190612932565b604051602081830303815290604052610e03565b5050565b610752838383604051806020016040528060008152506109a4565b505050565b600061076161051d565b82106107a7576000826040517fa57d13dc00000000000000000000000000000000000000000000000000000000815260040161079e92919061280a565b60405180910390fd5b600882815481106107bb576107ba612954565b5b90600052602060002001549050919050565b6107d5610c90565b80600d90816107e49190612b2f565b5050565b6000600c54905090565b60006107fd82610b9b565b9050919050565b60008073ffffffffffffffffffffffffffffffffffffffff168273ffffffffffffffffffffffffffffffffffffffff16036108775760006040517f89c62b6400000000000000000000000000000000000000000000000000000000815260040161086e91906122f4565b60405180910390fd5b600360008373ffffffffffffffffffffffffffffffffffffffff1673ffffffffffffffffffffffffffffffffffffffff168152602001908152602001600020549050919050565b6108c6610c90565b6108d06000610e5f565b565b6000600b60009054906101000a900473ffffffffffffffffffffffffffffffffffffffff16905090565b60606001805461090b906127a2565b80601f0160208091040260200160405190810160405280929190818152602001828054610937906127a2565b80156109845780601f1061095957610100808354040283529160200191610984565b820191906000526020600020905b81548152906001019060200180831161096757829003601f168201915b5050505050905090565b6109a0610999610c60565b8383610f25565b5050565b6109af84848461052a565b6109bb84848484611094565b50505050565b606060006109cd61124b565b905060008151116109ed5760405180602001604052806000815250610a18565b806109f784610d35565b604051602001610a08929190612c01565b6040516020818303038152906040525b915050919050565b6000600560008473ffffffffffffffffffffffffffffffffffffffff1673ffffffffffffffffffffffffffffffffffffffff16815260200190815260200160002060008373ffffffffffffffffffffffffffffffffffffffff1673ffffffffffffffffffffffffffffffffffffffff16815260200190815260200160002060009054906101000a900460ff16905092915050565b610abc610c90565b600073ffffffffffffffffffffffffffffffffffffffff168173ffffffffffffffffffffffffffffffffffffffff1603610b2e5760006040517f1e4fbdf7000000000000000000000000000000000000000000000000000000008152600401610b2591906122f4565b60405180910390fd5b610b3781610e5f565b50565b6000634906490660e01b7bffffffffffffffffffffffffffffffffffffffffffffffffffffffff1916827bffffffffffffffffffffffffffffffffffffffffffffffffffffffff19161480610b945750610b93826112dd565b5b9050919050565b600080610ba783611357565b9050600073ffffffffffffffffffffffffffffffffffffffff168173ffffffffffffffffffffffffffffffffffffffff1603610c1a57826040517f7e273289000000000000000000000000000000000000000000000000000000008152600401610c11919061238a565b60405180910390fd5b80915050919050565b60006004600083815260200190815260200160002060009054906101000a900473ffffffffffffffffffffffffffffffffffffffff169050919050565b600033905090565b610c758383836001611394565b505050565b6000610c87848484611559565b90509392505050565b610c98610c60565b73ffffffffffffffffffffffffffffffffffffffff16610cb66108d2565b73ffffffffffffffffffffffffffffffffffffffff1614610d1557610cd9610c60565b6040517f118cdaa7000000000000000000000000000000000000000000000000000000008152600401610d0c91906122f4565b60405180910390fd5b565b610d31828260405180602001604052806000815250611676565b5050565b606060006001610d4484611692565b01905060008167ffffffffffffffff811115610d6357610d6261242f565b5b6040519080825280601f01601f191660200182016040528015610d955781602001600182028036833780820191505090505b509050600082602001820190505b600115610df8578080600190039150507f3031323334353637383961626364656600000000000000000000000000000000600a86061a8153600a8581610dec57610deb612c30565b5b04945060008503610da3575b819350505050919050565b80600a60008481526020019081526020016000209081610e239190612b2f565b507ff8e1a15aba9398e019f0b49df1a4fde98ee17ae345cb5f6b5e2c27f5033e8ce782604051610e53919061238a565b60405180910390a15050565b6000600b60009054906101000a900473ffffffffffffffffffffffffffffffffffffffff16905081600b60006101000a81548173ffffffffffffffffffffffffffffffffffffffff021916908373ffffffffffffffffffffffffffffffffffffffff1602179055508173ffffffffffffffffffffffffffffffffffffffff168173ffffffffffffffffffffffffffffffffffffffff167f8be0079c531659141344cd1fd0a4f28419497f9722a3daafe3b4186f6b6457e060405160405180910390a35050565b600073ffffffffffffffffffffffffffffffffffffffff168273ffffffffffffffffffffffffffffffffffffffff1603610f9657816040517f5b08ba18000000000000000000000000000000000000000000000000000000008152600401610f8d91906122f4565b60405180910390fd5b80600560008573ffffffffffffffffffffffffffffffffffffffff1673ffffffffffffffffffffffffffffffffffffffff16815260200190815260200160002060008473ffffffffffffffffffffffffffffffffffffffff1673ffffffffffffffffffffffffffffffffffffffff16815260200190815260200160002060006101000a81548160ff0219169083151502179055508173ffffffffffffffffffffffffffffffffffffffff168373ffffffffffffffffffffffffffffffffffffffff167f17307eab39ab6107e8899845ad3d59bd9653f200f220920489ca2b5937696c31836040516110879190612183565b60405180910390a3505050565b60008373ffffffffffffffffffffffffffffffffffffffff163b1115611245578273ffffffffffffffffffffffffffffffffffffffff1663150b7a026110d8610c60565b8685856040518563ffffffff1660e01b81526004016110fa9493929190612cb4565b6020604051808303816000875af192505050801561113657506040513d601f19601f820116820180604052508101906111339190612d15565b60015b6111ba573d8060008114611166576040519150601f19603f3d011682016040523d82523d6000602084013e61116b565b606091505b5060008151036111b257836040517f64a0ae920000000000000000000000000000000000000000000000000000000081526004016111a991906122f4565b60405180910390fd5b805181602001fd5b63150b7a0260e01b7bffffffffffffffffffffffffffffffffffffffffffffffffffffffff1916817bffffffffffffffffffffffffffffffffffffffffffffffffffffffff19161461124357836040517f64a0ae9200000000000000000000000000000000000000000000000000000000815260040161123a91906122f4565b60405180910390fd5b505b50505050565b6060600d805461125a906127a2565b80601f0160208091040260200160405190810160405280929190818152602001828054611286906127a2565b80156112d35780601f106112a8576101008083540402835291602001916112d3565b820191906000526020600020905b8154815290600101906020018083116112b657829003601f168201915b5050505050905090565b60007f780e9d63000000000000000000000000000000000000000000000000000000007bffffffffffffffffffffffffffffffffffffffffffffffffffffffff1916827bffffffffffffffffffffffffffffffffffffffffffffffffffffffff19161480611350575061134f826117e5565b5b9050919050565b60006002600083815260200190815260200160002060009054906101000a900473ffffffffffffffffffffffffffffffffffffffff169050919050565b80806113cd5750600073ffffffffffffffffffffffffffffffffffffffff168273ffffffffffffffffffffffffffffffffffffffff1614155b156115015760006113dd84610b9b565b9050600073ffffffffffffffffffffffffffffffffffffffff168373ffffffffffffffffffffffffffffffffffffffff161415801561144857508273ffffffffffffffffffffffffffffffffffffffff168173ffffffffffffffffffffffffffffffffffffffff1614155b801561145b57506114598184610a20565b155b1561149d57826040517fa9fbf51f00000000000000000000000000000000000000000000000000000000815260040161149491906122f4565b60405180910390fd5b81156114ff57838573ffffffffffffffffffffffffffffffffffffffff168273ffffffffffffffffffffffffffffffffffffffff167f8c5be1e5ebec7d5bd14f71427d1e84f3dd0314c0f7b2291e5b200ac8c7c3b92560405160405180910390a45b505b836004600085815260200190815260200160002060006101000a81548173ffffffffffffffffffffffffffffffffffffffff021916908373ffffffffffffffffffffffffffffffffffffffff16021790555050505050565b6000806115678585856118c7565b9050600073ffffffffffffffffffffffffffffffffffffffff168173ffffffffffffffffffffffffffffffffffffffff16036115ab576115a684611ae1565b6115ea565b8473ffffffffffffffffffffffffffffffffffffffff168173ffffffffffffffffffffffffffffffffffffffff16146115e9576115e88185611b2a565b5b5b600073ffffffffffffffffffffffffffffffffffffffff168573ffffffffffffffffffffffffffffffffffffffff160361162c5761162784611c8b565b61166b565b8473ffffffffffffffffffffffffffffffffffffffff168173ffffffffffffffffffffffffffffffffffffffff161461166a576116698585611d5c565b5b5b809150509392505050565b6116808383611de7565b61168d6000848484611094565b505050565b600080600090507a184f03e93ff9f4daa797ed6e38ed64bf6a1f01000000000000000083106116f0577a184f03e93ff9f4daa797ed6e38ed64bf6a1f01000000000000000083816116e6576116e5612c30565b5b0492506040810190505b6d04ee2d6d415b85acef8100000000831061172d576d04ee2d6d415b85acef8100000000838161172357611722612c30565b5b0492506020810190505b662386f26fc10000831061175c57662386f26fc10000838161175257611751612c30565b5b0492506010810190505b6305f5e1008310611785576305f5e100838161177b5761177a612c30565b5b0492506008810190505b61271083106117aa5761271083816117a05761179f612c30565b5b0492506004810190505b606483106117cd57606483816117c3576117c2612c30565b5b0492506002810190505b600a83106117dc576001810190505b80915050919050565b60007f80ac58cd000000000000000000000000000000000000000000000000000000007bffffffffffffffffffffffffffffffffffffffffffffffffffffffff1916827bffffffffffffffffffffffffffffffffffffffffffffffffffffffff191614806118b057507f5b5e139f000000000000000000000000000000000000000000000000000000007bffffffffffffffffffffffffffffffffffffffffffffffffffffffff1916827bffffffffffffffffffffffffffffffffffffffffffffffffffffffff1916145b806118c057506118bf82611ee0565b5b9050919050565b6000806118d384611357565b9050600073ffffffffffffffffffffffffffffffffffffffff168373ffffffffffffffffffffffffffffffffffffffff161461191557611914818486611f4a565b5b600073ffffffffffffffffffffffffffffffffffffffff168173ffffffffffffffffffffffffffffffffffffffff16146119a657611957600085600080611394565b6001600360008373ffffffffffffffffffffffffffffffffffffffff1673ffffffffffffffffffffffffffffffffffffffff168152602001908152602001600020600082825403925050819055505b600073ffffffffffffffffffffffffffffffffffffffff168573ffffffffffffffffffffffffffffffffffffffff1614611a29576001600360008773ffffffffffffffffffffffffffffffffffffffff1673ffffffffffffffffffffffffffffffffffffffff168152602001908152602001600020600082825401925050819055505b846002600086815260200190815260200160002060006101000a81548173ffffffffffffffffffffffffffffffffffffffff021916908373ffffffffffffffffffffffffffffffffffffffff160217905550838573ffffffffffffffffffffffffffffffffffffffff168273ffffffffffffffffffffffffffffffffffffffff167fddf252ad1be2c89b69c2b068fc378daa952ba7f163c4a11628f55a4df523b3ef60405160405180910390a4809150509392505050565b6008805490506009600083815260200190815260200160002081905550600881908060018154018082558091505060019003906000526020600020016000909190919091505550565b6000611b3583610804565b9050600060076000848152602001908152602001600020549050818114611c1a576000600660008673ffffffffffffffffffffffffffffffffffffffff1673ffffffffffffffffffffffffffffffffffffffff168152602001908152602001600020600084815260200190815260200160002054905080600660008773ffffffffffffffffffffffffffffffffffffffff1673ffffffffffffffffffffffffffffffffffffffff168152602001908152602001600020600084815260200190815260200160002081905550816007600083815260200190815260200160002081905550505b6007600084815260200190815260200160002060009055600660008573ffffffffffffffffffffffffffffffffffffffff1673ffffffffffffffffffffffffffffffffffffffff16815260200190815260200160002060008381526020019081526020016000206000905550505050565b60006001600880549050611c9f9190612d42565b9050600060096000848152602001908152602001600020549050600060088381548110611ccf57611cce612954565b5b906000526020600020015490508060088381548110611cf157611cf0612954565b5b906000526020600020018190555081600960008381526020019081526020016000208190555060096000858152602001908152602001600020600090556008805480611d4057611d3f612d76565b5b6001900381819060005260206000200160009055905550505050565b60006001611d6984610804565b611d739190612d42565b905081600660008573ffffffffffffffffffffffffffffffffffffffff1673ffffffffffffffffffffffffffffffffffffffff168152602001908152602001600020600083815260200190815260200160002081905550806007600084815260200190815260200160002081905550505050565b600073ffffffffffffffffffffffffffffffffffffffff168273ffffffffffffffffffffffffffffffffffffffff1603611e595760006040517f64a0ae92000000000000000000000000000000000000000000000000000000008152600401611e5091906122f4565b60405180910390fd5b6000611e6783836000610c7a565b9050600073ffffffffffffffffffffffffffffffffffffffff168173ffffffffffffffffffffffffffffffffffffffff1614611edb5760006040517f73c6ac6e000000000000000000000000000000000000000000000000000000008152600401611ed291906122f4565b60405180910390fd5b505050565b60007f01ffc9a7000000000000000000000000000000000000000000000000000000007bffffffffffffffffffffffffffffffffffffffffffffffffffffffff1916827bffffffffffffffffffffffffffffffffffffffffffffffffffffffff1916149050919050565b611f5583838361200e565b61200957600073ffffffffffffffffffffffffffffffffffffffff168373ffffffffffffffffffffffffffffffffffffffff1603611fca57806040517f7e273289000000000000000000000000000000000000000000000000000000008152600401611fc1919061238a565b60405180910390fd5b81816040517f177e802f00000000000000000000000000000000000000000000000000000000815260040161200092919061280a565b60405180910390fd5b505050565b60008073ffffffffffffffffffffffffffffffffffffffff168373ffffffffffffffffffffffffffffffffffffffff16141580156120c657508273ffffffffffffffffffffffffffffffffffffffff168473ffffffffffffffffffffffffffffffffffffffff16148061208757506120868484610a20565b5b806120c557508273ffffffffffffffffffffffffffffffffffffffff166120ad83610c23565b73ffffffffffffffffffffffffffffffffffffffff16145b5b90509392505050565b6000604051905090565b600080fd5b600080fd5b60007fffffffff0000000000000000000000000000000000000000000000000000000082169050919050565b612118816120e3565b811461212357600080fd5b50565b6000813590506121358161210f565b92915050565b600060208284031215612151576121506120d9565b5b600061215f84828501612126565b91505092915050565b60008115159050919050565b61217d81612168565b82525050565b60006020820190506121986000830184612174565b92915050565b600081519050919050565b600082825260208201905092915050565b60005b838110156121d85780820151818401526020810190506121bd565b60008484015250505050565b6000601f19601f8301169050919050565b60006122008261219e565b61220a81856121a9565b935061221a8185602086016121ba565b612223816121e4565b840191505092915050565b6000602082019050818103600083015261224881846121f5565b905092915050565b6000819050919050565b61226381612250565b811461226e57600080fd5b50565b6000813590506122808161225a565b92915050565b60006020828403121561229c5761229b6120d9565b5b60006122aa84828501612271565b91505092915050565b600073ffffffffffffffffffffffffffffffffffffffff82169050919050565b60006122de826122b3565b9050919050565b6122ee816122d3565b82525050565b600060208201905061230960008301846122e5565b92915050565b612318816122d3565b811461232357600080fd5b50565b6000813590506123358161230f565b92915050565b60008060408385031215612352576123516120d9565b5b600061236085828601612326565b925050602061237185828601612271565b9150509250929050565b61238481612250565b82525050565b600060208201905061239f600083018461237b565b92915050565b6000806000606084860312156123be576123bd6120d9565b5b60006123cc86828701612326565b93505060206123dd86828701612326565b92505060406123ee86828701612271565b9150509250925092565b60006020828403121561240e5761240d6120d9565b5b600061241c84828501612326565b91505092915050565b600080fd5b600080fd5b7f4e487b7100000000000000000000000000000000000000000000000000000000600052604160045260246000fd5b612467826121e4565b810181811067ffffffffffffffff821117156124865761248561242f565b5b80604052505050565b60006124996120cf565b90506124a5828261245e565b919050565b600067ffffffffffffffff8211156124c5576124c461242f565b5b6124ce826121e4565b9050602081019050919050565b82818337600083830152505050565b60006124fd6124f8846124aa565b61248f565b9050828152602081018484840111156125195761251861242a565b5b6125248482856124db565b509392505050565b600082601f83011261254157612540612425565b5b81356125518482602086016124ea565b91505092915050565b6000602082840312156125705761256f6120d9565b5b600082013567ffffffffffffffff81111561258e5761258d6120de565b5b61259a8482850161252c565b91505092915050565b6125ac81612168565b81146125b757600080fd5b50565b6000813590506125c9816125a3565b92915050565b600080604083850312156125e6576125e56120d9565b5b60006125f485828601612326565b9250506020612605858286016125ba565b9150509250929050565b600067ffffffffffffffff82111561262a5761262961242f565b5b612633826121e4565b9050602081019050919050565b600061265361264e8461260f565b61248f565b90508281526020810184848401111561266f5761266e61242a565b5b61267a8482856124db565b509392505050565b600082601f83011261269757612696612425565b5b81356126a7848260208601612640565b91505092915050565b600080600080608085870312156126ca576126c96120d9565b5b60006126d887828801612326565b94505060206126e987828801612326565b93505060406126fa87828801612271565b925050606085013567ffffffffffffffff81111561271b5761271a6120de565b5b61272787828801612682565b91505092959194509250565b6000806040838503121561274a576127496120d9565b5b600061275885828601612326565b925050602061276985828601612326565b9150509250929050565b7f4e487b7100000000000000000000000000000000000000000000000000000000600052602260045260246000fd5b600060028204905060018216806127ba57607f821691505b6020821081036127cd576127cc612773565b5b50919050565b60006060820190506127e860008301866122e5565b6127f5602083018561237b565b61280260408301846122e5565b949350505050565b600060408201905061281f60008301856122e5565b61282c602083018461237b565b9392505050565b7f4e487b7100000000000000000000000000000000000000000000000000000000600052601160045260246000fd5b600061286d82612250565b91507fffffffffffffffffffffffffffffffffffffffffffffffffffffffffffffffff820361289f5761289e612833565b5b600182019050919050565b600081905092915050565b60006128c08261219e565b6128ca81856128aa565b93506128da8185602086016121ba565b80840191505092915050565b7f2e6a736f6e000000000000000000000000000000000000000000000000000000600082015250565b600061291c6005836128aa565b9150612927826128e6565b600582019050919050565b600061293e82846128b5565b91506129498261290f565b915081905092915050565b7f4e487b7100000000000000000000000000000000000000000000000000000000600052603260045260246000fd5b60008190508160005260206000209050919050565b60006020601f8301049050919050565b600082821b905092915050565b6000600883026129e57fffffffffffffffffffffffffffffffffffffffffffffffffffffffffffffffff826129a8565b6129ef86836129a8565b95508019841693508086168417925050509392505050565b6000819050919050565b6000612a2c612a27612a2284612250565b612a07565b612250565b9050919050565b6000819050919050565b612a4683612a11565b612a5a612a5282612a33565b8484546129b5565b825550505050565b600090565b612a6f612a62565b612a7a818484612a3d565b505050565b5b81811015612a9e57612a93600082612a67565b600181019050612a80565b5050565b601f821115612ae357612ab481612983565b612abd84612998565b81016020851015612acc578190505b612ae0612ad885612998565b830182612a7f565b50505b505050565b600082821c905092915050565b6000612b0660001984600802612ae8565b1980831691505092915050565b6000612b1f8383612af5565b9150826002028217905092915050565b612b388261219e565b67ffffffffffffffff811115612b5157612b5061242f565b5b612b5b82546127a2565b612b66828285612aa2565b600060209050601f831160018114612b995760008415612b87578287015190505b612b918582612b13565b865550612bf9565b601f198416612ba786612983565b60005b82811015612bcf57848901518255600182019150602085019450602081019050612baa565b86831015612bec5784890151612be8601f891682612af5565b8355505b6001600288020188555050505b505050505050565b6000612c0d82856128b5565b9150612c1982846128b5565b9150612c248261290f565b91508190509392505050565b7f4e487b7100000000000000000000000000000000000000000000000000000000600052601260045260246000fd5b600081519050919050565b600082825260208201905092915050565b6000612c8682612c5f565b612c908185612c6a565b9350612ca08185602086016121ba565b612ca9816121e4565b840191505092915050565b6000608082019050612cc960008301876122e5565b612cd660208301866122e5565b612ce3604083018561237b565b8181036060830152612cf58184612c7b565b905095945050505050565b600081519050612d0f8161210f565b92915050565b600060208284031215612d2b57612d2a6120d9565b5b6000612d3984828501612d00565b91505092915050565b6000612d4d82612250565b9150612d5883612250565b9250828203905081811115612d7057612d6f612833565b5b92915050565b7f4e487b7100000000000000000000000000000000000000000000000000000000600052603160045260246000fdfea2646970667358221220fb34f7b35fa5141656bf82bcae022990508d2607b470617b437910abe12f504064736f6c63430008180033",
  "linkReferences": {},
  "deployedLinkReferences": {}
}