{
    "_format": "hh-sol-artifact-1",
    "contractName": "CoreNFT",
    "sourceName": "contracts/NFT.sol",
    "abi": [
        {
            "inputs": [
                {
                    "internalType": "string",
                    "name": "baseURI_",
                    "type": "string"
                }
            ],
            "stateMutability": "nonpayable",
            "type": "constructor"
        },
        {
            "inputs": [
                {
                    "internalType": "address",
                    "name": "sender",
                    "type": "address"
                },
                {
                    "internalType": "uint256",
                    "name": "tokenId",
                    "type": "uint256"
                },
                {
                    "internalType": "address",
                    "name": "owner",
                    "type": "address"
                }
            ],
            "name": "ERC721IncorrectOwner",
            "type": "error"
        },
        {
            "inputs": [
                {
                    "internalType": "address",
                    "name": "operator",
                    "type": "address"
                },
                {
                    "internalType": "uint256",
                    "name": "tokenId",
                    "type": "uint256"
                }
            ],
            "name": "ERC721InsufficientApproval",
            "type": "error"
        },
        {
            "inputs": [
                {
                    "internalType": "address",
                    "name": "approver",
                    "type": "address"
                }
            ],
            "name": "ERC721InvalidApprover",
            "type": "error"
        },
        {
            "inputs": [
                {
                    "internalType": "address",
                    "name": "operator",
                    "type": "address"
                }
            ],
            "name": "ERC721InvalidOperator",
            "type": "error"
        },
        {
            "inputs": [
                {
                    "internalType": "address",
                    "name": "owner",
                    "type": "address"
                }
            ],
            "name": "ERC721InvalidOwner",
            "type": "error"
        },
        {
            "inputs": [
                {
                    "internalType": "address",
                    "name": "receiver",
                    "type": "address"
                }
            ],
            "name": "ERC721InvalidReceiver",
            "type": "error"
        },
        {
            "inputs": [
                {
                    "internalType": "address",
                    "name": "sender",
                    "type": "address"
                }
            ],
            "name": "ERC721InvalidSender",
            "type": "error"
        },
        {
            "inputs": [
                {
                    "internalType": "uint256",
                    "name": "tokenId",
                    "type": "uint256"
                }
            ],
            "name": "ERC721NonexistentToken",
            "type": "error"
        },
        {
            "inputs": [
                {
                    "internalType": "address",
                    "name": "owner",
                    "type": "address"
                }
            ],
            "name": "OwnableInvalidOwner",
            "type": "error"
        },
        {
            "inputs": [
                {
                    "internalType": "address",
                    "name": "account",
                    "type": "address"
                }
            ],
            "name": "OwnableUnauthorizedAccount",
            "type": "error"
        },
        {
            "anonymous": false,
            "inputs": [
                {
                    "indexed": true,
                    "internalType": "address",
                    "name": "owner",
                    "type": "address"
                },
                {
                    "indexed": true,
                    "internalType": "address",
                    "name": "approved",
                    "type": "address"
                },
                {
                    "indexed": true,
                    "internalType": "uint256",
                    "name": "tokenId",
                    "type": "uint256"
                }
            ],
            "name": "Approval",
            "type": "event"
        },
        {
            "anonymous": false,
            "inputs": [
                {
                    "indexed": true,
                    "internalType": "address",
                    "name": "owner",
                    "type": "address"
                },
                {
                    "indexed": true,
                    "internalType": "address",
                    "name": "operator",
                    "type": "address"
                },
                {
                    "indexed": false,
                    "internalType": "bool",
                    "name": "approved",
                    "type": "bool"
                }
            ],
            "name": "ApprovalForAll",
            "type": "event"
        },
        {
            "anonymous": false,
            "inputs": [
                {
                    "indexed": false,
                    "internalType": "uint256",
                    "name": "_fromTokenId",
                    "type": "uint256"
                },
                {
                    "indexed": false,
                    "internalType": "uint256",
                    "name": "_toTokenId",
                    "type": "uint256"
                }
            ],
            "name": "BatchMetadataUpdate",
            "type": "event"
        },
        {
            "anonymous": false,
            "inputs": [
                {
                    "indexed": false,
                    "internalType": "uint256",
                    "name": "_tokenId",
                    "type": "uint256"
                }
            ],
            "name": "MetadataUpdate",
            "type": "event"
        },
        {
            "anonymous": false,
            "inputs": [
                {
                    "indexed": true,
                    "internalType": "address",
                    "name": "previousOwner",
                    "type": "address"
                },
                {
                    "indexed": true,
                    "internalType": "address",
                    "name": "newOwner",
                    "type": "address"
                }
            ],
            "name": "OwnershipTransferred",
            "type": "event"
        },
        {
            "anonymous": false,
            "inputs": [
                {
                    "indexed": true,
                    "internalType": "address",
                    "name": "from",
                    "type": "address"
                },
                {
                    "indexed": true,
                    "internalType": "address",
                    "name": "to",
                    "type": "address"
                },
                {
                    "indexed": true,
                    "internalType": "uint256",
                    "name": "tokenId",
                    "type": "uint256"
                }
            ],
            "name": "Transfer",
            "type": "event"
        },
        {
            "inputs": [
                {
                    "internalType": "address",
                    "name": "to",
                    "type": "address"
                },
                {
                    "internalType": "uint256",
                    "name": "tokenId",
                    "type": "uint256"
                }
            ],
            "name": "approve",
            "outputs": [],
            "stateMutability": "nonpayable",
            "type": "function"
        },
        {
            "inputs": [
                {
                    "internalType": "address",
                    "name": "owner",
                    "type": "address"
                }
            ],
            "name": "balanceOf",
            "outputs": [
                {
                    "internalType": "uint256",
                    "name": "",
                    "type": "uint256"
                }
            ],
            "stateMutability": "view",
            "type": "function"
        },
        {
            "inputs": [
                {
                    "internalType": "uint256",
                    "name": "tokenId",
                    "type": "uint256"
                }
            ],
            "name": "getApproved",
            "outputs": [
                {
                    "internalType": "address",
                    "name": "",
                    "type": "address"
                }
            ],
            "stateMutability": "view",
            "type": "function"
        },
        {
            "inputs": [],
            "name": "getCurrentTokenId",
            "outputs": [
                {
                    "internalType": "uint256",
                    "name": "",
                    "type": "uint256"
                }
            ],
            "stateMutability": "view",
            "type": "function"
        },
        {
            "inputs": [
                {
                    "internalType": "address",
                    "name": "owner",
                    "type": "address"
                },
                {
                    "internalType": "address",
                    "name": "operator",
                    "type": "address"
                }
            ],
            "name": "isApprovedForAll",
            "outputs": [
                {
                    "internalType": "bool",
                    "name": "",
                    "type": "bool"
                }
            ],
            "stateMutability": "view",
            "type": "function"
        },
        {
            "inputs": [],
            "name": "name",
            "outputs": [
                {
                    "internalType": "string",
                    "name": "",
                    "type": "string"
                }
            ],
            "stateMutability": "view",
            "type": "function"
        },
        {
            "inputs": [],
            "name": "owner",
            "outputs": [
                {
                    "internalType": "address",
                    "name": "",
                    "type": "address"
                }
            ],
            "stateMutability": "view",
            "type": "function"
        },
        {
            "inputs": [
                {
                    "internalType": "uint256",
                    "name": "tokenId",
                    "type": "uint256"
                }
            ],
            "name": "ownerOf",
            "outputs": [
                {
                    "internalType": "address",
                    "name": "",
                    "type": "address"
                }
            ],
            "stateMutability": "view",
            "type": "function"
        },
        {
            "inputs": [],
            "name": "renounceOwnership",
            "outputs": [],
            "stateMutability": "nonpayable",
            "type": "function"
        },
        {
            "inputs": [
                {
                    "internalType": "address",
                    "name": "to",
                    "type": "address"
                }
            ],
            "name": "safeMint",
            "outputs": [],
            "stateMutability": "nonpayable",
            "type": "function"
        },
        {
            "inputs": [
                {
                    "internalType": "address",
                    "name": "from",
                    "type": "address"
                },
                {
                    "internalType": "address",
                    "name": "to",
                    "type": "address"
                },
                {
                    "internalType": "uint256",
                    "name": "tokenId",
                    "type": "uint256"
                }
            ],
            "name": "safeTransferFrom",
            "outputs": [],
            "stateMutability": "nonpayable",
            "type": "function"
        },
        {
            "inputs": [
                {
                    "internalType": "address",
                    "name": "from",
                    "type": "address"
                },
                {
                    "internalType": "address",
                    "name": "to",
                    "type": "address"
                },
                {
                    "internalType": "uint256",
                    "name": "tokenId",
                    "type": "uint256"
                },
                {
                    "internalType": "bytes",
                    "name": "data",
                    "type": "bytes"
                }
            ],
            "name": "safeTransferFrom",
            "outputs": [],
            "stateMutability": "nonpayable",
            "type": "function"
        },
        {
            "inputs": [
                {
                    "internalType": "address",
                    "name": "operator",
                    "type": "address"
                },
                {
                    "internalType": "bool",
                    "name": "approved",
                    "type": "bool"
                }
            ],
            "name": "setApprovalForAll",
            "outputs": [],
            "stateMutability": "nonpayable",
            "type": "function"
        },
        {
            "inputs": [
                {
                    "internalType": "string",
                    "name": "baseURI_",
                    "type": "string"
                }
            ],
            "name": "setBaseURI",
            "outputs": [],
            "stateMutability": "nonpayable",
            "type": "function"
        },
        {
            "inputs": [
                {
                    "internalType": "bytes4",
                    "name": "interfaceId",
                    "type": "bytes4"
                }
            ],
            "name": "supportsInterface",
            "outputs": [
                {
                    "internalType": "bool",
                    "name": "",
                    "type": "bool"
                }
            ],
            "stateMutability": "view",
            "type": "function"
        },
        {
            "inputs": [],
            "name": "symbol",
            "outputs": [
                {
                    "internalType": "string",
                    "name": "",
                    "type": "string"
                }
            ],
            "stateMutability": "view",
            "type": "function"
        },
        {
            "inputs": [
                {
                    "internalType": "uint256",
                    "name": "tokenId",
                    "type": "uint256"
                }
            ],
            "name": "tokenURI",
            "outputs": [
                {
                    "internalType": "string",
                    "name": "",
                    "type": "string"
                }
            ],
            "stateMutability": "view",
            "type": "function"
        },
        {
            "inputs": [
                {
                    "internalType": "address",
                    "name": "from",
                    "type": "address"
                },
                {
                    "internalType": "address",
                    "name": "to",
                    "type": "address"
                },
                {
                    "internalType": "uint256",
                    "name": "tokenId",
                    "type": "uint256"
                }
            ],
            "name": "transferFrom",
            "outputs": [],
            "stateMutability": "nonpayable",
            "type": "function"
        },
        {
            "inputs": [
                {
                    "internalType": "address",
                    "name": "newOwner",
                    "type": "address"
                }
            ],
            "name": "transferOwnership",
            "outputs": [],
            "stateMutability": "nonpayable",
            "type": "function"
        }
    ],
    "bytecode": "0x60806040523480156200001157600080fd5b50604051620019053803806200190583398101604081905262000034916200014e565b336040518060400160405280600781526020016610dbdc9953919560ca1b81525060405180604001604052806004815260200163434f524560e01b8152508160009081620000839190620002b4565b506001620000928282620002b4565b5050506001600160a01b038116620000c457604051631e4fbdf760e01b81526000600482015260240160405180910390fd5b620000cf81620000e6565b506009620000de8282620002b4565b505062000380565b600780546001600160a01b038381166001600160a01b0319831681179093556040519116919082907f8be0079c531659141344cd1fd0a4f28419497f9722a3daafe3b4186f6b6457e090600090a35050565b634e487b7160e01b600052604160045260246000fd5b600060208083850312156200016257600080fd5b82516001600160401b03808211156200017a57600080fd5b818501915085601f8301126200018f57600080fd5b815181811115620001a457620001a462000138565b604051601f8201601f19908116603f01168101908382118183101715620001cf57620001cf62000138565b816040528281528886848701011115620001e857600080fd5b600093505b828410156200020c5784840186015181850187015292850192620001ed565b600086848301015280965050505050505092915050565b600181811c908216806200023857607f821691505b6020821081036200025957634e487b7160e01b600052602260045260246000fd5b50919050565b601f821115620002af576000816000526020600020601f850160051c810160208610156200028a5750805b601f850160051c820191505b81811015620002ab5782815560010162000296565b5050505b505050565b81516001600160401b03811115620002d057620002d062000138565b620002e881620002e1845462000223565b846200025f565b602080601f831160018114620003205760008415620003075750858301515b600019600386901b1c1916600185901b178555620002ab565b600085815260208120601f198616915b82811015620003515788860151825594840194600190910190840162000330565b5085821015620003705787850151600019600388901b60f8161c191681555b5050505050600190811b01905550565b61157580620003906000396000f3fe608060405234801561001057600080fd5b50600436106101515760003560e01c80636352211e116100cd578063a22cb46511610081578063c87b56dd11610066578063c87b56dd1461029e578063e985e9c5146102b1578063f2fde38b146102ed57600080fd5b8063a22cb46514610278578063b88d4fde1461028b57600080fd5b8063715018a6116100b2578063715018a6146102575780638da5cb5b1461025f57806395d89b411461027057600080fd5b80636352211e1461023157806370a082311461024457600080fd5b806323b872dd1161012457806342842e0e1161010957806342842e0e146101f957806355f804b31461020c578063561892361461021f57600080fd5b806323b872dd146101d357806340d097c3146101e657600080fd5b806301ffc9a71461015657806306fdde031461017e578063081812fc14610193578063095ea7b3146101be575b600080fd5b610169610164366004611017565b610300565b60405190151581526020015b60405180910390f35b610186610311565b6040516101759190611084565b6101a66101a1366004611097565b6103a3565b6040516001600160a01b039091168152602001610175565b6101d16101cc3660046110cc565b6103cc565b005b6101d16101e13660046110f6565b6103db565b6101d16101f4366004611132565b610484565b6101d16102073660046110f6565b6104de565b6101d161021a3660046111d9565b6104fe565b6008545b604051908152602001610175565b6101a661023f366004611097565b610512565b610223610252366004611132565b61051d565b6101d161057e565b6007546001600160a01b03166101a6565b610186610592565b6101d1610286366004611222565b6105a1565b6101d161029936600461125e565b6105ac565b6101866102ac366004611097565b6105c3565b6101696102bf3660046112da565b6001600160a01b03918216600090815260056020908152604080832093909416825291909152205460ff1690565b6101d16102fb366004611132565b610621565b600061030b82610678565b92915050565b6060600080546103209061130d565b80601f016020809104026020016040519081016040528092919081815260200182805461034c9061130d565b80156103995780601f1061036e57610100808354040283529160200191610399565b820191906000526020600020905b81548152906001019060200180831161037c57829003601f168201915b5050505050905090565b60006103ae826106b6565b506000828152600460205260409020546001600160a01b031661030b565b6103d78282336106ef565b5050565b6001600160a01b03821661040a57604051633250574960e11b8152600060048201526024015b60405180910390fd5b60006104178383336106fc565b9050836001600160a01b0316816001600160a01b03161461047e576040517f64283d7b0000000000000000000000000000000000000000000000000000000081526001600160a01b0380861660048301526024820184905282166044820152606401610401565b50505050565b61048c610802565b600880546000918261049d83611347565b9190505590506104ad8282610848565b6103d7816104ba83610862565b6040516020016104ca919061136e565b604051602081830303815290604052610902565b6104f9838383604051806020016040528060008152506105ac565b505050565b610506610802565b60096103d782826113e7565b600061030b826106b6565b60006001600160a01b038216610562576040517f89c62b6400000000000000000000000000000000000000000000000000000000815260006004820152602401610401565b506001600160a01b031660009081526003602052604090205490565b610586610802565b6105906000610952565b565b6060600180546103209061130d565b6103d73383836109b1565b6105b78484846103db565b61047e84848484610a69565b606060006105cf610b92565b905060008151116105ef576040518060200160405280600081525061061a565b806105f984610862565b60405160200161060a9291906114a7565b6040516020818303038152906040525b9392505050565b610629610802565b6001600160a01b03811661066c576040517f1e4fbdf700000000000000000000000000000000000000000000000000000000815260006004820152602401610401565b61067581610952565b50565b60006001600160e01b031982167f4906490600000000000000000000000000000000000000000000000000000000148061030b575061030b82610ba1565b6000818152600260205260408120546001600160a01b03168061030b57604051637e27328960e01b815260048101849052602401610401565b6104f98383836001610c3c565b6000828152600260205260408120546001600160a01b039081169083161561072957610729818486610d87565b6001600160a01b0381161561076757610746600085600080610c3c565b6001600160a01b038116600090815260036020526040902080546000190190555b6001600160a01b03851615610796576001600160a01b0385166000908152600360205260409020805460010190555b600084815260026020526040808220805473ffffffffffffffffffffffffffffffffffffffff19166001600160a01b0389811691821790925591518793918516917fddf252ad1be2c89b69c2b068fc378daa952ba7f163c4a11628f55a4df523b3ef91a4949350505050565b6007546001600160a01b03163314610590576040517f118cdaa7000000000000000000000000000000000000000000000000000000008152336004820152602401610401565b6103d7828260405180602001604052806000815250610e04565b6060600061086f83610e1b565b600101905060008167ffffffffffffffff81111561088f5761088f61114d565b6040519080825280601f01601f1916602001820160405280156108b9576020820181803683370190505b5090508181016020015b600019017f3031323334353637383961626364656600000000000000000000000000000000600a86061a8153600a85049450846108c357509392505050565b600082815260066020526040902061091a82826113e7565b506040518281527ff8e1a15aba9398e019f0b49df1a4fde98ee17ae345cb5f6b5e2c27f5033e8ce79060200160405180910390a15050565b600780546001600160a01b0383811673ffffffffffffffffffffffffffffffffffffffff19831681179093556040519116919082907f8be0079c531659141344cd1fd0a4f28419497f9722a3daafe3b4186f6b6457e090600090a35050565b6001600160a01b0382166109fc576040517f5b08ba180000000000000000000000000000000000000000000000000000000081526001600160a01b0383166004820152602401610401565b6001600160a01b03838116600081815260056020908152604080832094871680845294825291829020805460ff191686151590811790915591519182527f17307eab39ab6107e8899845ad3d59bd9653f200f220920489ca2b5937696c31910160405180910390a3505050565b6001600160a01b0383163b1561047e57604051630a85bd0160e11b81526001600160a01b0384169063150b7a0290610aab9033908890879087906004016114e6565b6020604051808303816000875af1925050508015610ae6575060408051601f3d908101601f19168201909252610ae391810190611522565b60015b610b4f573d808015610b14576040519150601f19603f3d011682016040523d82523d6000602084013e610b19565b606091505b508051600003610b4757604051633250574960e11b81526001600160a01b0385166004820152602401610401565b805181602001fd5b6001600160e01b03198116630a85bd0160e11b14610b8b57604051633250574960e11b81526001600160a01b0385166004820152602401610401565b5050505050565b6060600980546103209061130d565b60006001600160e01b031982167f80ac58cd000000000000000000000000000000000000000000000000000000001480610c0457506001600160e01b031982167f5b5e139f00000000000000000000000000000000000000000000000000000000145b8061030b57507f01ffc9a7000000000000000000000000000000000000000000000000000000006001600160e01b031983161461030b565b8080610c5057506001600160a01b03821615155b15610d4a576000610c60846106b6565b90506001600160a01b03831615801590610c8c5750826001600160a01b0316816001600160a01b031614155b8015610cbe57506001600160a01b0380821660009081526005602090815260408083209387168352929052205460ff16155b15610d00576040517fa9fbf51f0000000000000000000000000000000000000000000000000000000081526001600160a01b0384166004820152602401610401565b8115610d485783856001600160a01b0316826001600160a01b03167f8c5be1e5ebec7d5bd14f71427d1e84f3dd0314c0f7b2291e5b200ac8c7c3b92560405160405180910390a45b505b50506000908152600460205260409020805473ffffffffffffffffffffffffffffffffffffffff19166001600160a01b0392909216919091179055565b610d92838383610efd565b6104f9576001600160a01b038316610dc057604051637e27328960e01b815260048101829052602401610401565b6040517f177e802f0000000000000000000000000000000000000000000000000000000081526001600160a01b038316600482015260248101829052604401610401565b610e0e8383610f83565b6104f96000848484610a69565b6000807a184f03e93ff9f4daa797ed6e38ed64bf6a1f0100000000000000008310610e64577a184f03e93ff9f4daa797ed6e38ed64bf6a1f010000000000000000830492506040015b6d04ee2d6d415b85acef81000000008310610e90576d04ee2d6d415b85acef8100000000830492506020015b662386f26fc100008310610eae57662386f26fc10000830492506010015b6305f5e1008310610ec6576305f5e100830492506008015b6127108310610eda57612710830492506004015b60648310610eec576064830492506002015b600a831061030b5760010192915050565b60006001600160a01b03831615801590610f7b5750826001600160a01b0316846001600160a01b03161480610f5757506001600160a01b0380851660009081526005602090815260408083209387168352929052205460ff165b80610f7b57506000828152600460205260409020546001600160a01b038481169116145b949350505050565b6001600160a01b038216610fad57604051633250574960e11b815260006004820152602401610401565b6000610fbb838360006106fc565b90506001600160a01b038116156104f9576040517f73c6ac6e00000000000000000000000000000000000000000000000000000000815260006004820152602401610401565b6001600160e01b03198116811461067557600080fd5b60006020828403121561102957600080fd5b813561061a81611001565b60005b8381101561104f578181015183820152602001611037565b50506000910152565b60008151808452611070816020860160208601611034565b601f01601f19169290920160200192915050565b60208152600061061a6020830184611058565b6000602082840312156110a957600080fd5b5035919050565b80356001600160a01b03811681146110c757600080fd5b919050565b600080604083850312156110df57600080fd5b6110e8836110b0565b946020939093013593505050565b60008060006060848603121561110b57600080fd5b611114846110b0565b9250611122602085016110b0565b9150604084013590509250925092565b60006020828403121561114457600080fd5b61061a826110b0565b634e487b7160e01b600052604160045260246000fd5b600067ffffffffffffffff8084111561117e5761117e61114d565b604051601f8501601f19908116603f011681019082821181831017156111a6576111a661114d565b816040528093508581528686860111156111bf57600080fd5b858560208301376000602087830101525050509392505050565b6000602082840312156111eb57600080fd5b813567ffffffffffffffff81111561120257600080fd5b8201601f8101841361121357600080fd5b610f7b84823560208401611163565b6000806040838503121561123557600080fd5b61123e836110b0565b91506020830135801515811461125357600080fd5b809150509250929050565b6000806000806080858703121561127457600080fd5b61127d856110b0565b935061128b602086016110b0565b925060408501359150606085013567ffffffffffffffff8111156112ae57600080fd5b8501601f810187136112bf57600080fd5b6112ce87823560208401611163565b91505092959194509250565b600080604083850312156112ed57600080fd5b6112f6836110b0565b9150611304602084016110b0565b90509250929050565b600181811c9082168061132157607f821691505b60208210810361134157634e487b7160e01b600052602260045260246000fd5b50919050565b60006001820161136757634e487b7160e01b600052601160045260246000fd5b5060010190565b60008251611380818460208701611034565b64173539b7b760d91b920191825250600501919050565b601f8211156104f9576000816000526020600020601f850160051c810160208610156113c05750805b601f850160051c820191505b818110156113df578281556001016113cc565b505050505050565b815167ffffffffffffffff8111156114015761140161114d565b6114158161140f845461130d565b84611397565b602080601f83116001811461144a57600084156114325750858301515b600019600386901b1c1916600185901b1785556113df565b600085815260208120601f198616915b828110156114795788860151825594840194600190910190840161145a565b50858210156114975787850151600019600388901b60f8161c191681555b5050505050600190811b01905550565b600083516114b9818460208801611034565b8351908301906114cd818360208801611034565b64173539b7b760d91b9101908152600501949350505050565b60006001600160a01b038087168352808616602084015250836040830152608060608301526115186080830184611058565b9695505050505050565b60006020828403121561153457600080fd5b815161061a8161100156fea26469706673582212209e355c1616fed5f3c50cb9be785c5e80fb85227b146cd1a92e003ff48a70999f64736f6c63430008180033",
    "linkReferences": {},
    "deployedLinkReferences": {}
}